{
  "transactions": [
    {
      "hash": "0xf4ed1a3663affc6a439b4b720bc237b4b84808952ecc3e1de2784dc6416bbd96",
      "transactionType": "CALL",
      "contractName": null,
      "contractAddress": "0x5de4839a76cf55d0c90e2061ef4386d962E15ae3",
      "function": "addStake(uint32)",
      "arguments": [
        "86400"
      ],
      "transaction": {
        "type": "0x02",
        "from": "0x9775137314fe595c943712b0b336327dfa80ae8a",
        "to": "0x5de4839a76cf55d0c90e2061ef4386d962e15ae3",
        "gas": "0x1da96",
        "value": "0x16345785d8a0000",
        "data": "0x0396cb600000000000000000000000000000000000000000000000000000000000015180",
        "nonce": "0xd",
        "accessList": []
      },
      "additionalContracts": [],
      "isFixedGasLimit": false
    }
  ],
  "receipts": [],
  "libraries": [],
  "pending": [
    "0xf4ed1a3663affc6a439b4b720bc237b4b84808952ecc3e1de2784dc6416bbd96"
  ],
  "returns": {},
  "timestamp": 1704382117,
  "chain": 84532,
  "multi": false,
  "commit": "cc00ca6"
}