{
  "transactions": [
    {
      "hash": "0x3e62ab289a2bf3956455db1f85a168f53416d724509d8d7de25d7bb9bcacdfbe",
      "transactionType": "CALL",
      "contractName": null,
      "contractAddress": "0x5de4839a76cf55d0c90e2061ef4386d962E15ae3",
      "function": "addStake(uint32)",
      "arguments": [
        "86400"
      ],
      "transaction": {
        "type": "0x02",
        "from": "0x9775137314fe595c943712b0b336327dfa80ae8a",
        "to": "0x5de4839a76cf55d0c90e2061ef4386d962e15ae3",
        "gas": "0x1ab67",
        "value": "0x16345785d8a0000",
        "data": "0x0396cb600000000000000000000000000000000000000000000000000000000000015180",
        "nonce": "0x13",
        "accessList": []
      },
      "additionalContracts": [],
      "isFixedGasLimit": false
    }
  ],
  "receipts": [
    {
      "transactionHash": "0x3e62ab289a2bf3956455db1f85a168f53416d724509d8d7de25d7bb9bcacdfbe",
      "transactionIndex": "0x1",
      "blockHash": "0x52b1b6419804895e2edceedc5b3a7c827c14d0cd1115e62c26f03c54fce5eb64",
      "blockNumber": "0x2f698e",
      "from": "0x9775137314fE595c943712B0b336327dfa80aE8A",
      "to": "0x5de4839a76cf55d0c90e2061ef4386d962E15ae3",
      "cumulativeGasUsed": "0x14481",
      "gasUsed": "0x14481",
      "contractAddress": null,
      "logs": [
        {
          "address": "0x5FF137D4b0FDCD49DcA30c7CF57E578a026d2789",
          "topics": [
            "0xa5ae833d0bb1dcd632d98a8b70973e8516812898e19bf27b70071ebc8dc52c01",
            "0x0000000000000000000000005de4839a76cf55d0c90e2061ef4386d962e15ae3"
          ],
          "data": "0x000000000000000000000000000000000000000000000000016345785d8a00000000000000000000000000000000000000000000000000000000000000015180",
          "blockHash": "0x52b1b6419804895e2edceedc5b3a7c827c14d0cd1115e62c26f03c54fce5eb64",
          "blockNumber": "0x2f698e",
          "transactionHash": "0x3e62ab289a2bf3956455db1f85a168f53416d724509d8d7de25d7bb9bcacdfbe",
          "transactionIndex": "0x1",
          "logIndex": "0x0",
          "removed": false
        }
      ],
      "status": "0x1",
      "logsBloom": "0x00000000000000000000000000000000000000000000000010000000800000000000000000000000000200000000000000100000000000000000000000000000000000000000000000000000000000000000000000000000000000000000000400000000080000000000000000000000000000000000000000000000000000000000000000000000000000000000000000000000000000000000000000000000000000000000000000000000000000000000000000000000000000000000000000000000000000000000000000000000000040000000000000000000000000000100000000000000000000000000000000000200000000000000000000000000",
      "type": "0x2",
      "effectiveGasPrice": "0x5f5e100"
    }
  ],
  "libraries": [],
  "pending": [],
  "returns": {},
  "timestamp": 1703052149,
  "chain": 421614,
  "multi": false,
  "commit": "cc00ca6"
}