{
  "transactions": [
    {
      "hash": "0x636e3aac109c0f626363a8c7620bef07d883974134d4b212c5bae8dc05b1228c",
      "transactionType": "CALL",
      "contractName": null,
      "contractAddress": "0xd703aae79538628d27099b8c4f621be4ccd142d5",
      "function": "approveFactory(address,bool)",
      "arguments": [
        "0x6723b44Abeec4E71eBE3232BD5B455805baDD22f",
        "true"
      ],
      "transaction": {
        "from": "0x9775137314fe595c943712b0b336327dfa80ae8a",
        "to": "0xd703aae79538628d27099b8c4f621be4ccd142d5",
        "gas": "0x108d1",
        "value": "0x0",
        "input": "0x6e7dbabb0000000000000000000000006723b44abeec4e71ebe3232bd5b455805badd22f0000000000000000000000000000000000000000000000000000000000000001",
        "nonce": "0xf",
        "chainId": "0xaa37dc",
        "accessList": null,
        "type": null
      },
      "additionalContracts": [],
      "isFixedGasLimit": false
    },
    {
      "hash": "0x555160d37f2c92d5ed18ad8184cd6ba0787c78f39b0652a534a491424f0ca5ad",
      "transactionType": "CALL",
      "contractName": null,
      "contractAddress": "0xd703aae79538628d27099b8c4f621be4ccd142d5",
      "function": "stake(address,uint32)",
      "arguments": [
        "0x0000000071727De22E5E9d8BAf0edAc6f37da032",
        "86400"
      ],
      "transaction": {
        "from": "0x9775137314fe595c943712b0b336327dfa80ae8a",
        "to": "0xd703aae79538628d27099b8c4f621be4ccd142d5",
        "gas": "0x15b7f",
        "value": "0x16345785d8a0000",
        "input": "0xc7e55f3e0000000000000000000000000000000071727de22e5e9d8baf0edac6f37da0320000000000000000000000000000000000000000000000000000000000015180",
        "nonce": "0x10",
        "chainId": "0xaa37dc",
        "accessList": null,
        "type": null
      },
      "additionalContracts": [],
      "isFixedGasLimit": false
    }
  ],
  "receipts": [
    {
      "status": "0x1",
      "cumulativeGasUsed": "0xe287e",
      "logs": [],
      "logsBloom": "0x00000000000000000000000000000000000000000000000000000000000000000000000000000000000000000000000000000000000000000000000000000000000000000000000000000000000000000000000000000000000000000000000000000000000000000000000000000000000000000000000000000000000000000000000000000000000000000000000000000000000000000000000000000000000000000000000000000000000000000000000000000000000000000000000000000000000000000000000000000000000000000000000000000000000000000000000000000000000000000000000000000000000000000000000000000000",
      "type": "0x0",
      "transactionHash": "0x636e3aac109c0f626363a8c7620bef07d883974134d4b212c5bae8dc05b1228c",
      "transactionIndex": "0x4",
      "blockHash": "0x3fc9197b42b5ed7a19ee5a1388ef4f48636586e26414d6887226e988dc28d56b",
      "blockNumber": "0xa09ae3",
      "gasUsed": "0xb513",
      "effectiveGasPrice": "0xf433c",
      "from": "0x9775137314fe595c943712b0b336327dfa80ae8a",
      "to": "0xd703aae79538628d27099b8c4f621be4ccd142d5",
      "contractAddress": null,
      "l1Fee": "0xbac3fa6d19be",
      "l1GasPrice": "0x139c231f",
      "l1GasUsed": "0x8dc"
    },
    {
      "status": "0x1",
      "cumulativeGasUsed": "0x5a28a",
      "logs": [
        {
          "address": "0x0000000071727de22e5e9d8baf0edac6f37da032",
          "topics": [
            "0xa5ae833d0bb1dcd632d98a8b70973e8516812898e19bf27b70071ebc8dc52c01",
            "0x000000000000000000000000d703aae79538628d27099b8c4f621be4ccd142d5"
          ],
          "data": "0x000000000000000000000000000000000000000000000000016345785d8a00000000000000000000000000000000000000000000000000000000000000015180",
          "blockHash": "0x6a228677ac3ce148016f94e68fcaa19c73c35f3795a28fbce494cf93df209945",
          "blockNumber": "0xa09ae4",
          "transactionHash": "0x555160d37f2c92d5ed18ad8184cd6ba0787c78f39b0652a534a491424f0ca5ad",
          "transactionIndex": "0x3",
          "logIndex": "0x6",
          "removed": false
        }
      ],
      "logsBloom": "0x00000000000000000000000000000000000000000000000000000000000000000004000000000000000000000000000000000000000000000000000000000000000000000000000000000000000000000040000000000000000000000000000000000000000800000000000000200000000000000000000000000000000000000000000000000000000000000000000000000000000000000000000000000000000000000000000000000000000000000000000000000000000000000000000000000000000000400000000000000000000040000000000000000000000000000100000000000000000000000000000000000a00000000000000000000000000",
      "type": "0x0",
      "transactionHash": "0x555160d37f2c92d5ed18ad8184cd6ba0787c78f39b0652a534a491424f0ca5ad",
      "transactionIndex": "0x3",
      "blockHash": "0x6a228677ac3ce148016f94e68fcaa19c73c35f3795a28fbce494cf93df209945",
      "blockNumber": "0xa09ae4",
      "gasUsed": "0xed9b",
      "effectiveGasPrice": "0xf433c",
      "from": "0x9775137314fe595c943712b0b336327dfa80ae8a",
      "to": "0xd703aae79538628d27099b8c4f621be4ccd142d5",
      "contractAddress": null,
      "l1Fee": "0xd125b91c9b75",
      "l1GasPrice": "0x13458264",
      "l1GasUsed": "0x92c"
    }
  ],
  "libraries": [],
  "pending": [],
  "returns": {},
  "timestamp": 1712853370,
  "chain": 11155420,
  "commit": "de0f2f3"
}