{
  "transactions": [
    {
      "hash": "0xea72999dc04efa32a4bb1f84d3806c05110a7d3882e2831a0ceb381b223008e8",
      "transactionType": "CALL",
      "contractName": null,
      "contractAddress": "0x5de4839a76cf55d0c90e2061ef4386d962E15ae3",
      "function": "addStake(uint32)",
      "arguments": [
        "86400"
      ],
      "transaction": {
        "type": "0x02",
        "from": "0x9775137314fe595c943712b0b336327dfa80ae8a",
        "to": "0x5de4839a76cf55d0c90e2061ef4386d962e15ae3",
        "gas": "0x1da96",
        "value": "0x16345785d8a0000",
        "data": "0x0396cb600000000000000000000000000000000000000000000000000000000000015180",
        "nonce": "0xd",
        "accessList": []
      },
      "additionalContracts": [],
      "isFixedGasLimit": false
    }
  ],
  "receipts": [],
  "libraries": [],
  "pending": [
    "0xea72999dc04efa32a4bb1f84d3806c05110a7d3882e2831a0ceb381b223008e8"
  ],
  "returns": {},
  "timestamp": 1704381598,
  "chain": 11155420,
  "multi": false,
  "commit": "cc00ca6"
}