{
  "transactions": [
    {
      "hash": "0xea72999dc04efa32a4bb1f84d3806c05110a7d3882e2831a0ceb381b223008e8",
      "transactionType": "CALL",
      "contractName": null,
      "contractAddress": "0x5de4839a76cf55d0c90e2061ef4386d962E15ae3",
      "function": "addStake(uint32)",
      "arguments": [
        "86400"
      ],
      "transaction": {
        "type": "0x02",
        "from": "0x9775137314fe595c943712b0b336327dfa80ae8a",
        "to": "0x5de4839a76cf55d0c90e2061ef4386d962e15ae3",
        "gas": "0x1da96",
        "value": "0x16345785d8a0000",
        "data": "0x0396cb600000000000000000000000000000000000000000000000000000000000015180",
        "nonce": "0xd",
        "accessList": []
      },
      "additionalContracts": [],
      "isFixedGasLimit": false
    }
  ],
  "receipts": [
    {
      "transactionHash": "0xea72999dc04efa32a4bb1f84d3806c05110a7d3882e2831a0ceb381b223008e8",
      "transactionIndex": "0x1",
      "blockHash": "0xd6bcd4cb3a478739894ee7be0d76d9c2a364ce53e7fb30ac121fc8a7ac6d089d",
      "blockNumber": "0x5ff87a",
      "from": "0x9775137314fE595c943712B0b336327dfa80aE8A",
      "to": "0x5de4839a76cf55d0c90e2061ef4386d962E15ae3",
      "cumulativeGasUsed": "0x23e82",
      "gasUsed": "0x14481",
      "contractAddress": null,
      "logs": [
        {
          "address": "0x5FF137D4b0FDCD49DcA30c7CF57E578a026d2789",
          "topics": [
            "0xa5ae833d0bb1dcd632d98a8b70973e8516812898e19bf27b70071ebc8dc52c01",
            "0x0000000000000000000000005de4839a76cf55d0c90e2061ef4386d962e15ae3"
          ],
          "data": "0x000000000000000000000000000000000000000000000000016345785d8a00000000000000000000000000000000000000000000000000000000000000015180",
          "blockHash": "0xd6bcd4cb3a478739894ee7be0d76d9c2a364ce53e7fb30ac121fc8a7ac6d089d",
          "blockNumber": "0x5ff87a",
          "transactionHash": "0xea72999dc04efa32a4bb1f84d3806c05110a7d3882e2831a0ceb381b223008e8",
          "transactionIndex": "0x1",
          "logIndex": "0x0",
          "removed": false
        }
      ],
      "status": "0x1",
      "logsBloom": "0x00000000000000000000000000000000000000000000000010000000800000000000000000000000000200000000000000100000000000000000000000000000000000000000000000000000000000000000000000000000000000000000000400000000080000000000000000000000000000000000000000000000000000000000000000000000000000000000000000000000000000000000000000000000000000000000000000000000000000000000000000000000000000000000000000000000000000000000000000000000000040000000000000000000000000000100000000000000000000000000000000000200000000000000000000000000",
      "type": "0x2",
      "effectiveGasPrice": "0xb2d05efc"
    }
  ],
  "libraries": [],
  "pending": [],
  "returns": {},
  "timestamp": 1704381605,
  "chain": 11155420,
  "multi": false,
  "commit": "cc00ca6"
}