{
  "transactions": [
    {
      "hash": "0xbad76f61b853d581543af91747199a205de7ad681be5e5d966abe64461482e2f",
      "transactionType": "CALL",
      "contractName": null,
      "contractAddress": "0xd703aae79538628d27099b8c4f621be4ccd142d5",
      "function": "approveFactory(address,bool)",
      "arguments": [
        "0xB52f3C04AeAF9364FBf68310a8128aabb40C9ABb",
        "true"
      ],
      "transaction": {
        "from": "0x9775137314fe595c943712b0b336327dfa80ae8a",
        "to": "0xd703aae79538628d27099b8c4f621be4ccd142d5",
        "gas": "0x108d1",
        "value": "0x0",
        "input": "0x6e7dbabb000000000000000000000000b52f3c04aeaf9364fbf68310a8128aabb40c9abb0000000000000000000000000000000000000000000000000000000000000001",
        "nonce": "0x49",
        "chainId": "0xaa36a7"
      },
      "additionalContracts": [],
      "isFixedGasLimit": false
    }
  ],
  "receipts": [
    {
      "status": "0x1",
      "cumulativeGasUsed": "0x114d51e",
      "logs": [],
      "logsBloom": "0x00000000000000000000000000000000000000000000000000000000000000000000000000000000000000000000000000000000000000000000000000000000000000000000000000000000000000000000000000000000000000000000000000000000000000000000000000000000000000000000000000000000000000000000000000000000000000000000000000000000000000000000000000000000000000000000000000000000000000000000000000000000000000000000000000000000000000000000000000000000000000000000000000000000000000000000000000000000000000000000000000000000000000000000000000000000",
      "type": "0x2",
      "transactionHash": "0xbad76f61b853d581543af91747199a205de7ad681be5e5d966abe64461482e2f",
      "transactionIndex": "0x95",
      "blockHash": "0xff3048f33e07b523d63ac72f8ea8b737ad4e9998f14646251341ae4eeb119714",
      "blockNumber": "0x595c13",
      "gasUsed": "0xb513",
      "effectiveGasPrice": "0x1278e722a9",
      "from": "0x9775137314fe595c943712b0b336327dfa80ae8a",
      "to": "0xd703aae79538628d27099b8c4f621be4ccd142d5",
      "contractAddress": null
    }
  ],
  "libraries": [],
  "pending": [],
  "returns": {},
  "timestamp": 1715102413,
  "chain": 11155111,
  "commit": "10c0997"
}