{
  "transactions": [
    {
      "hash": "0xbbb5fe055a655494096f4479ce6d1034db0db4782e438f9fb089d2fb75bd69f0",
      "transactionType": "CREATE2",
      "contractName": "KernelFactory",
      "contractAddress": "0x17B6697d81844518365484323e810Be08EaA3A6a",
      "function": null,
      "arguments": [
        "0xe59cffb45AFFB215e3823F7D1a207a71C1aa09c3"
      ],
      "transaction": {
        "type": "0x02",
        "from": "0x9775137314fe595c943712b0b336327dfa80ae8a",
        "to": "0x4e59b44847b379578588920ca78fbf26c0b4956c",
        "gas": "0x67438",
        "value": "0x0",
        "data": "0x000000000000000000000000000000000000000000000000000000000000000060a060405234801561001057600080fd5b506040516104d33803806104d383398101604081905261002f91610040565b6001600160a01b0316608052610070565b60006020828403121561005257600080fd5b81516001600160a01b038116811461006957600080fd5b9392505050565b60805161043c6100976000396000818160870152818160f10152610159015261043c6000f3fe6080604052600436106100345760003560e01c806348aac392146100395780635c60da1b14610075578063ea6d13ac146100a9575b600080fd5b34801561004557600080fd5b506100596100543660046103a2565b6100bc565b6040516001600160a01b03909116815260200160405180910390f35b34801561008157600080fd5b506100597f000000000000000000000000000000000000000000000000000000000000000081565b6100596100b73660046103a2565b610120565b6000808484846040516020016100d49392919061041a565b6040516020818303038152906040528051906020012090506101177f00000000000000000000000000000000000000000000000000000000000000008230610213565b95945050505050565b6000808484846040516020016101389392919061041a565b60405160208183030381529060405280519060200120905060008061017e347f00000000000000000000000000000000000000000000000000000000000000008561029c565b9150915081610209576000816001600160a01b031688886040516101a392919061042c565b6000604051808303816000865af19150503d80600081146101e0576040519150601f19603f3d011682016040523d82523d6000602084013e6101e5565b606091505b50509050806102075760405163487e630960e11b815260040160405180910390fd5b505b9695505050505050565b60008061028f85604080517fcc3735a920a3ca505d382bbc545af43d6000803e6038573d6000fd5b3d6000f360609081527f5155f3363d3d373d3d363d7f360894a13ba1a3210667c828492db98dca3e20768352616009602052601e9390935268603d3d8160223d3973600a52605f6021209152600090915290565b9050610117818585610380565b6000806040517fcc3735a920a3ca505d382bbc545af43d6000803e6038573d6000fd5b3d6000f36060527f5155f3363d3d373d3d363d7f360894a13ba1a3210667c828492db98dca3e207660405261600960205284601e5268603d3d8160223d3973600a52605f60212060358201523060581b815260ff8153836015820152605581209150813b6103485783605f602188f59150816103435763301164256000526004601cfd5b61036e565b60019250851561036e5760003860003889865af161036e5763b12d13eb6000526004601cfd5b80604052506000606052935093915050565b600060ff60005350603592835260601b60015260155260556000908120915290565b6000806000604084860312156103b757600080fd5b833567ffffffffffffffff808211156103cf57600080fd5b818601915086601f8301126103e357600080fd5b8135818111156103f257600080fd5b87602082850101111561040457600080fd5b6020928301989097509590910135949350505050565b82848237909101908152602001919050565b818382376000910190815291905056000000000000000000000000e59cffb45affb215e3823f7d1a207a71c1aa09c3",
        "nonce": "0x34",
        "accessList": []
      },
      "additionalContracts": [],
      "isFixedGasLimit": false
    },
    {
      "hash": "0x64c019e366a2810f19ef9e30206cde44d9e4686629382eac94badeee5f772467",
      "transactionType": "CALL",
      "contractName": "FactoryStaker",
      "contractAddress": "0xd703aaE79538628d27099B8c4f621bE4CCd142d5",
      "function": "approveFactory(address,bool)",
      "arguments": [
        "0x17B6697d81844518365484323e810Be08EaA3A6a",
        "true"
      ],
      "transaction": {
        "type": "0x02",
        "from": "0x9775137314fe595c943712b0b336327dfa80ae8a",
        "to": "0xd703aae79538628d27099b8c4f621be4ccd142d5",
        "gas": "0x108d1",
        "value": "0x0",
        "data": "0x6e7dbabb00000000000000000000000017b6697d81844518365484323e810be08eaa3a6a0000000000000000000000000000000000000000000000000000000000000001",
        "nonce": "0x35",
        "accessList": []
      },
      "additionalContracts": [],
      "isFixedGasLimit": false
    }
  ],
  "receipts": [
    {
      "transactionHash": "0xbbb5fe055a655494096f4479ce6d1034db0db4782e438f9fb089d2fb75bd69f0",
      "transactionIndex": "0xa",
      "blockHash": "0x21482697bb2662dfbe81c335a9bb36a030dfa3f6cc9b7d0d6cd0a6135c5addd6",
      "blockNumber": "0x564c55",
      "from": "0x9775137314fE595c943712B0b336327dfa80aE8A",
      "to": "0x4e59b44847b379578588920cA78FbF26c0B4956C",
      "cumulativeGasUsed": "0xb8a53",
      "gasUsed": "0x46a09",
      "contractAddress": null,
      "logs": [],
      "status": "0x1",
      "logsBloom": "0x00000000000000000000000000000000000000000000000000000000000000000000000000000000000000000000000000000000000000000000000000000000000000000000000000000000000000000000000000000000000000000000000000000000000000000000000000000000000000000000000000000000000000000000000000000000000000000000000000000000000000000000000000000000000000000000000000000000000000000000000000000000000000000000000000000000000000000000000000000000000000000000000000000000000000000000000000000000000000000000000000000000000000000000000000000000",
      "type": "0x2",
      "effectiveGasPrice": "0xb2d8d587"
    },
    {
      "transactionHash": "0x64c019e366a2810f19ef9e30206cde44d9e4686629382eac94badeee5f772467",
      "transactionIndex": "0xb",
      "blockHash": "0x21482697bb2662dfbe81c335a9bb36a030dfa3f6cc9b7d0d6cd0a6135c5addd6",
      "blockNumber": "0x564c55",
      "from": "0x9775137314fE595c943712B0b336327dfa80aE8A",
      "to": "0xd703aaE79538628d27099B8c4f621bE4CCd142d5",
      "cumulativeGasUsed": "0xc3f66",
      "gasUsed": "0xb513",
      "contractAddress": null,
      "logs": [],
      "status": "0x1",
      "logsBloom": "0x00000000000000000000000000000000000000000000000000000000000000000000000000000000000000000000000000000000000000000000000000000000000000000000000000000000000000000000000000000000000000000000000000000000000000000000000000000000000000000000000000000000000000000000000000000000000000000000000000000000000000000000000000000000000000000000000000000000000000000000000000000000000000000000000000000000000000000000000000000000000000000000000000000000000000000000000000000000000000000000000000000000000000000000000000000000",
      "type": "0x2",
      "effectiveGasPrice": "0xb2d8d587"
    }
  ],
  "libraries": [],
  "pending": [],
  "returns": {},
  "timestamp": 1712596842,
  "chain": 11155111,
  "commit": "86dab38"
}