{
  "transactions": [
    {
      "hash": "0xf6d98c1605b3ad3024124456ee559f72dad754c0c3940f43722d3b4483034ed9",
      "transactionType": "CALL",
      "contractName": null,
      "contractAddress": "0xd703aae79538628d27099b8c4f621be4ccd142d5",
      "function": "approveFactory(address,bool)",
      "arguments": [
        "0x6723b44Abeec4E71eBE3232BD5B455805baDD22f",
        "true"
      ],
      "transaction": {
        "from": "0x9775137314fe595c943712b0b336327dfa80ae8a",
        "to": "0xd703aae79538628d27099b8c4f621be4ccd142d5",
        "gas": "0x108d1",
        "value": "0x0",
        "input": "0x6e7dbabb0000000000000000000000006723b44abeec4e71ebe3232bd5b455805badd22f0000000000000000000000000000000000000000000000000000000000000001",
        "nonce": "0x124",
        "chainId": "0x13881",
        "accessList": null,
        "type": null
      },
      "additionalContracts": [],
      "isFixedGasLimit": false
    },
    {
      "hash": "0x1a3877a0860ddbd96932789a39a92f4a32dea293f91358459ce1bbbdf5baab5d",
      "transactionType": "CALL",
      "contractName": null,
      "contractAddress": "0xd703aae79538628d27099b8c4f621be4ccd142d5",
      "function": "stake(address,uint32)",
      "arguments": [
        "0x0000000071727De22E5E9d8BAf0edAc6f37da032",
        "86400"
      ],
      "transaction": {
        "from": "0x9775137314fe595c943712b0b336327dfa80ae8a",
        "to": "0xd703aae79538628d27099b8c4f621be4ccd142d5",
        "gas": "0x15b7f",
        "value": "0x16345785d8a0000",
        "input": "0xc7e55f3e0000000000000000000000000000000071727de22e5e9d8baf0edac6f37da0320000000000000000000000000000000000000000000000000000000000015180",
        "nonce": "0x125",
        "chainId": "0x13881",
        "accessList": null,
        "type": null
      },
      "additionalContracts": [],
      "isFixedGasLimit": false
    }
  ],
  "receipts": [
    {
      "status": "0x1",
      "cumulativeGasUsed": "0x90edc",
      "logs": [
        {
          "address": "0x0000000000000000000000000000000000001010",
          "topics": [
            "0x4dfe1bbbcf077ddc3e01291eea2d5c70c2b422b415d95645b9adcfd678cb1d63",
            "0x0000000000000000000000000000000000000000000000000000000000001010",
            "0x0000000000000000000000009775137314fe595c943712b0b336327dfa80ae8a",
            "0x0000000000000000000000004cefb7df2ff89a05ddd0176de11e01ef0cf7ed84"
          ],
          "data": "0x0000000000000000000000000000000000000000000000000000d2cc528059e300000000000000000000000000000000000000000000000016565c06bae859f50000000000000000000000000000000000000000000000a7fef9b788f0c573280000000000000000000000000000000000000000000000001655893a686800120000000000000000000000000000000000000000000000a7fefa8a554345cd0b",
          "blockHash": "0x8a82ac93f2601f3c80628c97e674d94fa628e8f68f1a13e4abad2599a76b43d8",
          "blockNumber": "0x2de6e82",
          "transactionHash": "0xf6d98c1605b3ad3024124456ee559f72dad754c0c3940f43722d3b4483034ed9",
          "transactionIndex": "0x4",
          "logIndex": "0x10",
          "removed": false
        }
      ],
      "logsBloom": "0x00000000000000000000000000000000000000000000000000000000000000000000000000000000000000000000000000008000000000000000000000000000000000000000000000000000000000800000000001000000000100000000000200000001000000000000000000000000000000000000000080000000000000000000000000000020000000000000000000000000000000000000080000000000201000000000000000000000000000000000000000000000000000000000004000000000000000000001000000000000000000000000000000100000000000000000000000000000000000000000000000000000000000000000000000100000",
      "type": "0x0",
      "transactionHash": "0xf6d98c1605b3ad3024124456ee559f72dad754c0c3940f43722d3b4483034ed9",
      "transactionIndex": "0x4",
      "blockHash": "0x8a82ac93f2601f3c80628c97e674d94fa628e8f68f1a13e4abad2599a76b43d8",
      "blockNumber": "0x2de6e82",
      "gasUsed": "0xb513",
      "effectiveGasPrice": "0x12a05f200",
      "from": "0x9775137314fe595c943712b0b336327dfa80ae8a",
      "to": "0xd703aae79538628d27099b8c4f621be4ccd142d5",
      "contractAddress": null
    },
    {
      "status": "0x1",
      "cumulativeGasUsed": "0x9fc77",
      "logs": [
        {
          "address": "0x0000000000000000000000000000000000001010",
          "topics": [
            "0xe6497e3ee548a3372136af2fcb0696db31fc6cf20260707645068bd3fe97f3c4",
            "0x0000000000000000000000000000000000000000000000000000000000001010",
            "0x0000000000000000000000009775137314fe595c943712b0b336327dfa80ae8a",
            "0x000000000000000000000000d703aae79538628d27099b8c4f621be4ccd142d5"
          ],
          "data": "0x000000000000000000000000000000000000000000000000016345785d8a00000000000000000000000000000000000000000000000000001653f4b0806455f5000000000000000000000000000000000000000000000000000000000000000000000000000000000000000000000000000000000000000014f0af3822da55f5000000000000000000000000000000000000000000000000016345785d8a0000",
          "blockHash": "0x8a82ac93f2601f3c80628c97e674d94fa628e8f68f1a13e4abad2599a76b43d8",
          "blockNumber": "0x2de6e82",
          "transactionHash": "0x1a3877a0860ddbd96932789a39a92f4a32dea293f91358459ce1bbbdf5baab5d",
          "transactionIndex": "0x5",
          "logIndex": "0x11",
          "removed": false
        },
        {
          "address": "0x0000000000000000000000000000000000001010",
          "topics": [
            "0xe6497e3ee548a3372136af2fcb0696db31fc6cf20260707645068bd3fe97f3c4",
            "0x0000000000000000000000000000000000000000000000000000000000001010",
            "0x000000000000000000000000d703aae79538628d27099b8c4f621be4ccd142d5",
            "0x0000000000000000000000000000000071727de22e5e9d8baf0edac6f37da032"
          ],
          "data": "0x000000000000000000000000000000000000000000000000016345785d8a0000000000000000000000000000000000000000000000000000016345785d8a000000000000000000000000000000000000000000000000000082fe08c968d8b9d6000000000000000000000000000000000000000000000000000000000000000000000000000000000000000000000000000000000000000084614e41c662b9d6",
          "blockHash": "0x8a82ac93f2601f3c80628c97e674d94fa628e8f68f1a13e4abad2599a76b43d8",
          "blockNumber": "0x2de6e82",
          "transactionHash": "0x1a3877a0860ddbd96932789a39a92f4a32dea293f91358459ce1bbbdf5baab5d",
          "transactionIndex": "0x5",
          "logIndex": "0x12",
          "removed": false
        },
        {
          "address": "0x0000000071727de22e5e9d8baf0edac6f37da032",
          "topics": [
            "0xa5ae833d0bb1dcd632d98a8b70973e8516812898e19bf27b70071ebc8dc52c01",
            "0x000000000000000000000000d703aae79538628d27099b8c4f621be4ccd142d5"
          ],
          "data": "0x000000000000000000000000000000000000000000000000016345785d8a00000000000000000000000000000000000000000000000000000000000000015180",
          "blockHash": "0x8a82ac93f2601f3c80628c97e674d94fa628e8f68f1a13e4abad2599a76b43d8",
          "blockNumber": "0x2de6e82",
          "transactionHash": "0x1a3877a0860ddbd96932789a39a92f4a32dea293f91358459ce1bbbdf5baab5d",
          "transactionIndex": "0x5",
          "logIndex": "0x13",
          "removed": false
        },
        {
          "address": "0x0000000000000000000000000000000000001010",
          "topics": [
            "0x4dfe1bbbcf077ddc3e01291eea2d5c70c2b422b415d95645b9adcfd678cb1d63",
            "0x0000000000000000000000000000000000000000000000000000000000001010",
            "0x0000000000000000000000009775137314fe595c943712b0b336327dfa80ae8a",
            "0x0000000000000000000000004cefb7df2ff89a05ddd0176de11e01ef0cf7ed84"
          ],
          "data": "0x0000000000000000000000000000000000000000000000000001149bf29599eb0000000000000000000000000000000000000000000000001655893a685d63f50000000000000000000000000000000000000000000000a7fefa8a554345cd0b0000000000000000000000000000000000000000000000001654749e75c7ca0a0000000000000000000000000000000000000000000000a7fefb9ef135db66f6",
          "blockHash": "0x8a82ac93f2601f3c80628c97e674d94fa628e8f68f1a13e4abad2599a76b43d8",
          "blockNumber": "0x2de6e82",
          "transactionHash": "0x1a3877a0860ddbd96932789a39a92f4a32dea293f91358459ce1bbbdf5baab5d",
          "transactionIndex": "0x5",
          "logIndex": "0x14",
          "removed": false
        }
      ],
      "logsBloom": "0x00000000000000000000000000000000000000000000000000000000000000000004000000000000000000100000000000008000000000000000000000000000010000000000000000000000000000800040000001000000000100000000000200000001000800000000000000200000000000000000000080000000000000000000000000000020000000000000000000000000000000000000080000000000201000000000000000000000000000000000000000000000000000000000004000000000000000400001000000000000000040000000800000108000000000000100000000000000000000000000000000800a00000000000100000000100000",
      "type": "0x0",
      "transactionHash": "0x1a3877a0860ddbd96932789a39a92f4a32dea293f91358459ce1bbbdf5baab5d",
      "transactionIndex": "0x5",
      "blockHash": "0x8a82ac93f2601f3c80628c97e674d94fa628e8f68f1a13e4abad2599a76b43d8",
      "blockNumber": "0x2de6e82",
      "gasUsed": "0xed9b",
      "effectiveGasPrice": "0x12a05f200",
      "from": "0x9775137314fe595c943712b0b336327dfa80ae8a",
      "to": "0xd703aae79538628d27099b8c4f621be4ccd142d5",
      "contractAddress": null
    }
  ],
  "libraries": [],
  "pending": [],
  "returns": {},
  "timestamp": 1712853455,
  "chain": 80001,
  "commit": "de0f2f3"
}