{
  "transactions": [
    {
      "hash": "0x0d1dfb896feea78070aa3002bccd34b9f31c57c5d3078e7747106f22acea09af",
      "transactionType": "CALL",
      "contractName": null,
      "contractAddress": "0xd703aae79538628d27099b8c4f621be4ccd142d5",
      "function": "approveFactory(address,bool)",
      "arguments": [
        "0x6723b44Abeec4E71eBE3232BD5B455805baDD22f",
        "true"
      ],
      "transaction": {
        "from": "0x9775137314fe595c943712b0b336327dfa80ae8a",
        "to": "0xd703aae79538628d27099b8c4f621be4ccd142d5",
        "gas": "0x108d1",
        "value": "0x0",
        "input": "0x6e7dbabb0000000000000000000000006723b44abeec4e71ebe3232bd5b455805badd22f0000000000000000000000000000000000000000000000000000000000000001",
        "nonce": "0x1b",
        "chainId": "0xa869",
        "accessList": null,
        "type": null
      },
      "additionalContracts": [],
      "isFixedGasLimit": false
    },
    {
      "hash": "0x857888053f49359159bb9ec7b181cdb5ea62be3717b988b764614928ceda3989",
      "transactionType": "CALL",
      "contractName": null,
      "contractAddress": "0xd703aae79538628d27099b8c4f621be4ccd142d5",
      "function": "stake(address,uint32)",
      "arguments": [
        "0x0000000071727De22E5E9d8BAf0edAc6f37da032",
        "86400"
      ],
      "transaction": {
        "from": "0x9775137314fe595c943712b0b336327dfa80ae8a",
        "to": "0xd703aae79538628d27099b8c4f621be4ccd142d5",
        "gas": "0x15b7f",
        "value": "0x16345785d8a0000",
        "input": "0xc7e55f3e0000000000000000000000000000000071727de22e5e9d8baf0edac6f37da0320000000000000000000000000000000000000000000000000000000000015180",
        "nonce": "0x1c",
        "chainId": "0xa869",
        "accessList": null,
        "type": null
      },
      "additionalContracts": [],
      "isFixedGasLimit": false
    }
  ],
  "receipts": [
    {
      "status": "0x1",
      "cumulativeGasUsed": "0xb513",
      "logs": [],
      "logsBloom": "0x00000000000000000000000000000000000000000000000000000000000000000000000000000000000000000000000000000000000000000000000000000000000000000000000000000000000000000000000000000000000000000000000000000000000000000000000000000000000000000000000000000000000000000000000000000000000000000000000000000000000000000000000000000000000000000000000000000000000000000000000000000000000000000000000000000000000000000000000000000000000000000000000000000000000000000000000000000000000000000000000000000000000000000000000000000000",
      "type": "0x2",
      "transactionHash": "0x0d1dfb896feea78070aa3002bccd34b9f31c57c5d3078e7747106f22acea09af",
      "transactionIndex": "0x0",
      "blockHash": "0x9c55b2d812daebbac26b132c2ffc1e5ef1ca580982778a324cb6c181cf286724",
      "blockNumber": "0x1e49e2e",
      "gasUsed": "0xb513",
      "effectiveGasPrice": "0x6fc23ac00",
      "from": "0x9775137314fe595c943712b0b336327dfa80ae8a",
      "to": "0xd703aae79538628d27099b8c4f621be4ccd142d5",
      "contractAddress": null
    },
    {
      "status": "0x1",
      "cumulativeGasUsed": "0x1a2ae",
      "logs": [
        {
          "address": "0x0000000071727de22e5e9d8baf0edac6f37da032",
          "topics": [
            "0xa5ae833d0bb1dcd632d98a8b70973e8516812898e19bf27b70071ebc8dc52c01",
            "0x000000000000000000000000d703aae79538628d27099b8c4f621be4ccd142d5"
          ],
          "data": "0x000000000000000000000000000000000000000000000000016345785d8a00000000000000000000000000000000000000000000000000000000000000015180",
          "blockHash": "0x9c55b2d812daebbac26b132c2ffc1e5ef1ca580982778a324cb6c181cf286724",
          "blockNumber": "0x1e49e2e",
          "transactionHash": "0x857888053f49359159bb9ec7b181cdb5ea62be3717b988b764614928ceda3989",
          "transactionIndex": "0x1",
          "logIndex": "0x0",
          "removed": false
        }
      ],
      "logsBloom": "0x00000000000000000000000000000000000000000000000000000000000000000004000000000000000000000000000000000000000000000000000000000000000000000000000000000000000000000040000000000000000000000000000000000000000800000000000000200000000000000000000000000000000000000000000000000000000000000000000000000000000000000000000000000000000000000000000000000000000000000000000000000000000000000000000000000000000000400000000000000000000040000000000000000000000000000100000000000000000000000000000000000a00000000000000000000000000",
      "type": "0x2",
      "transactionHash": "0x857888053f49359159bb9ec7b181cdb5ea62be3717b988b764614928ceda3989",
      "transactionIndex": "0x1",
      "blockHash": "0x9c55b2d812daebbac26b132c2ffc1e5ef1ca580982778a324cb6c181cf286724",
      "blockNumber": "0x1e49e2e",
      "gasUsed": "0xed9b",
      "effectiveGasPrice": "0x6fc23ac00",
      "from": "0x9775137314fe595c943712b0b336327dfa80ae8a",
      "to": "0xd703aae79538628d27099b8c4f621be4ccd142d5",
      "contractAddress": null
    }
  ],
  "libraries": [],
  "pending": [],
  "returns": {},
  "timestamp": 1712852835,
  "chain": 43113,
  "commit": "de0f2f3"
}