{
  "transactions": [
    {
      "hash": "0xa41ae6ddb3c75c61403e3f534b9ec79bb6ae877d375d6483ef0efb61ab1bae62",
      "transactionType": "CALL",
      "contractName": null,
      "contractAddress": "0xd703aae79538628d27099b8c4f621be4ccd142d5",
      "function": "approveFactory(address,bool)",
      "arguments": [
        "0x6723b44Abeec4E71eBE3232BD5B455805baDD22f",
        "true"
      ],
      "transaction": {
        "from": "0x9775137314fe595c943712b0b336327dfa80ae8a",
        "to": "0xd703aae79538628d27099b8c4f621be4ccd142d5",
        "gas": "0x119036",
        "value": "0x0",
        "input": "0x6e7dbabb0000000000000000000000006723b44abeec4e71ebe3232bd5b455805badd22f0000000000000000000000000000000000000000000000000000000000000001",
        "nonce": "0x1c",
        "chainId": "0x66eee",
        "accessList": null,
        "type": null
      },
      "additionalContracts": [],
      "isFixedGasLimit": false
    },
    {
      "hash": "0xef432f4c46259ad834b59dffbb14fd3b1a2efc8354da241977101af325a6c61b",
      "transactionType": "CALL",
      "contractName": null,
      "contractAddress": "0xd703aae79538628d27099b8c4f621be4ccd142d5",
      "function": "stake(address,uint32)",
      "arguments": [
        "0x0000000071727De22E5E9d8BAf0edAc6f37da032",
        "86400"
      ],
      "transaction": {
        "from": "0x9775137314fe595c943712b0b336327dfa80ae8a",
        "to": "0xd703aae79538628d27099b8c4f621be4ccd142d5",
        "gas": "0x12809b",
        "value": "0x16345785d8a0000",
        "input": "0xc7e55f3e0000000000000000000000000000000071727de22e5e9d8baf0edac6f37da0320000000000000000000000000000000000000000000000000000000000015180",
        "nonce": "0x1d",
        "chainId": "0x66eee",
        "accessList": null,
        "type": null
      },
      "additionalContracts": [],
      "isFixedGasLimit": false
    }
  ],
  "receipts": [
    {
      "status": "0x1",
      "cumulativeGasUsed": "0x8801f",
      "logs": [],
      "logsBloom": "0x00000000000000000000000000000000000000000000000000000000000000000000000000000000000000000000000000000000000000000000000000000000000000000000000000000000000000000000000000000000000000000000000000000000000000000000000000000000000000000000000000000000000000000000000000000000000000000000000000000000000000000000000000000000000000000000000000000000000000000000000000000000000000000000000000000000000000000000000000000000000000000000000000000000000000000000000000000000000000000000000000000000000000000000000000000000",
      "type": "0x2",
      "transactionHash": "0xa41ae6ddb3c75c61403e3f534b9ec79bb6ae877d375d6483ef0efb61ab1bae62",
      "transactionIndex": "0x1",
      "blockHash": "0x56a845331f68cddabf7bd9b1b92ac55abda5e5cb2cf346fdecb396d503c13be9",
      "blockNumber": "0x1f2254d",
      "gasUsed": "0x8801f",
      "effectiveGasPrice": "0x1a77f870",
      "from": "0x9775137314fe595c943712b0b336327dfa80ae8a",
      "to": "0xd703aae79538628d27099b8c4f621be4ccd142d5",
      "contractAddress": null,
      "gasUsedForL1": "0x7cb0c",
      "l1BlockNumber": "0x569c14"
    },
    {
      "status": "0x1",
      "cumulativeGasUsed": "0x1c514d",
      "logs": [
        {
          "address": "0x0000000071727de22e5e9d8baf0edac6f37da032",
          "topics": [
            "0xa5ae833d0bb1dcd632d98a8b70973e8516812898e19bf27b70071ebc8dc52c01",
            "0x000000000000000000000000d703aae79538628d27099b8c4f621be4ccd142d5"
          ],
          "data": "0x000000000000000000000000000000000000000000000000016345785d8a00000000000000000000000000000000000000000000000000000000000000015180",
          "blockHash": "0x2a65c91f0840d2afaf37abce1f1cefcaf20b52dc9136ff802cbe315a7a8bb537",
          "blockNumber": "0x1f22551",
          "transactionHash": "0xef432f4c46259ad834b59dffbb14fd3b1a2efc8354da241977101af325a6c61b",
          "transactionIndex": "0x3",
          "logIndex": "0x0",
          "removed": false
        }
      ],
      "logsBloom": "0x00000000000000000000000000000000000000000000000000000000000000000004000000000000000000000000000000000000000000000000000000000000000000000000000000000000000000000040000000000000000000000000000000000000000800000000000000200000000000000000000000000000000000000000000000000000000000000000000000000000000000000000000000000000000000000000000000000000000000000000000000000000000000000000000000000000000000400000000000000000000040000000000000000000000000000100000000000000000000000000000000000a00000000000000000000000000",
      "type": "0x2",
      "transactionHash": "0xef432f4c46259ad834b59dffbb14fd3b1a2efc8354da241977101af325a6c61b",
      "transactionIndex": "0x3",
      "blockHash": "0x2a65c91f0840d2afaf37abce1f1cefcaf20b52dc9136ff802cbe315a7a8bb537",
      "blockNumber": "0x1f22551",
      "gasUsed": "0x91be7",
      "effectiveGasPrice": "0x1a529620",
      "from": "0x9775137314fe595c943712b0b336327dfa80ae8a",
      "to": "0xd703aae79538628d27099b8c4f621be4ccd142d5",
      "contractAddress": null,
      "gasUsedForL1": "0x82e4c",
      "l1BlockNumber": "0x569c14"
    }
  ],
  "libraries": [],
  "pending": [],
  "returns": {},
  "timestamp": 1712852878,
  "chain": 421614,
  "commit": "de0f2f3"
}