{
  "transactions": [
    {
      "hash": "0xfae80fa54d2b9cdd31ba12c84746a9239d66ba733b167b1201f994a5f1ec31ea",
      "transactionType": "CALL",
      "contractName": null,
      "contractAddress": "0xd703aae79538628d27099b8c4f621be4ccd142d5",
      "function": "approveFactory(address,bool)",
      "arguments": [
        "0x6723b44Abeec4E71eBE3232BD5B455805baDD22f",
        "true"
      ],
      "transaction": {
        "from": "0x9775137314fe595c943712b0b336327dfa80ae8a",
        "to": "0xd703aae79538628d27099b8c4f621be4ccd142d5",
        "gas": "0x108d1",
        "value": "0x0",
        "input": "0x6e7dbabb0000000000000000000000006723b44abeec4e71ebe3232bd5b455805badd22f0000000000000000000000000000000000000000000000000000000000000001",
        "nonce": "0x16",
        "chainId": "0xa",
        "accessList": null,
        "type": null
      },
      "additionalContracts": [],
      "isFixedGasLimit": false
    },
    {
      "hash": "0x421d8641ae24a2b7dbdf8b1c3688768b223aad7b7d517a3599a90df6d3b991e0",
      "transactionType": "CALL",
      "contractName": null,
      "contractAddress": "0xd703aae79538628d27099b8c4f621be4ccd142d5",
      "function": "stake(address,uint32)",
      "arguments": [
        "0x0000000071727De22E5E9d8BAf0edAc6f37da032",
        "86400"
      ],
      "transaction": {
        "from": "0x9775137314fe595c943712b0b336327dfa80ae8a",
        "to": "0xd703aae79538628d27099b8c4f621be4ccd142d5",
        "gas": "0x15b7f",
        "value": "0x16345785d8a0000",
        "input": "0xc7e55f3e0000000000000000000000000000000071727de22e5e9d8baf0edac6f37da0320000000000000000000000000000000000000000000000000000000000015180",
        "nonce": "0x17",
        "chainId": "0xa",
        "accessList": null,
        "type": null
      },
      "additionalContracts": [],
      "isFixedGasLimit": false
    }
  ],
  "receipts": [
    {
      "status": "0x1",
      "cumulativeGasUsed": "0xcd191",
      "logs": [],
      "logsBloom": "0x00000000000000000000000000000000000000000000000000000000000000000000000000000000000000000000000000000000000000000000000000000000000000000000000000000000000000000000000000000000000000000000000000000000000000000000000000000000000000000000000000000000000000000000000000000000000000000000000000000000000000000000000000000000000000000000000000000000000000000000000000000000000000000000000000000000000000000000000000000000000000000000000000000000000000000000000000000000000000000000000000000000000000000000000000000000",
      "type": "0x0",
      "transactionHash": "0xfae80fa54d2b9cdd31ba12c84746a9239d66ba733b167b1201f994a5f1ec31ea",
      "transactionIndex": "0x4",
      "blockHash": "0x673278250070e421099c87832f3639274774fe48aef3d9df9b489f63c67668db",
      "blockNumber": "0x71271f3",
      "gasUsed": "0xb513",
      "effectiveGasPrice": "0x3a2dbfd",
      "from": "0x9775137314fe595c943712b0b336327dfa80ae8a",
      "to": "0xd703aae79538628d27099b8c4f621be4ccd142d5",
      "contractAddress": null,
      "l1Fee": "0x7be79ca9e",
      "l1GasPrice": "0x28bcf798f",
      "l1GasUsed": "0x8ac"
    },
    {
      "status": "0x1",
      "cumulativeGasUsed": "0xdbf2c",
      "logs": [
        {
          "address": "0x0000000071727de22e5e9d8baf0edac6f37da032",
          "topics": [
            "0xa5ae833d0bb1dcd632d98a8b70973e8516812898e19bf27b70071ebc8dc52c01",
            "0x000000000000000000000000d703aae79538628d27099b8c4f621be4ccd142d5"
          ],
          "data": "0x000000000000000000000000000000000000000000000000016345785d8a00000000000000000000000000000000000000000000000000000000000000015180",
          "blockHash": "0x673278250070e421099c87832f3639274774fe48aef3d9df9b489f63c67668db",
          "blockNumber": "0x71271f3",
          "transactionHash": "0x421d8641ae24a2b7dbdf8b1c3688768b223aad7b7d517a3599a90df6d3b991e0",
          "transactionIndex": "0x5",
          "logIndex": "0x19",
          "removed": false
        }
      ],
      "logsBloom": "0x00000000000000000000000000000000000000000000000000000000000000000004000000000000000000000000000000000000000000000000000000000000000000000000000000000000000000000040000000000000000000000000000000000000000800000000000000200000000000000000000000000000000000000000000000000000000000000000000000000000000000000000000000000000000000000000000000000000000000000000000000000000000000000000000000000000000000400000000000000000000040000000000000000000000000000100000000000000000000000000000000000a00000000000000000000000000",
      "type": "0x0",
      "transactionHash": "0x421d8641ae24a2b7dbdf8b1c3688768b223aad7b7d517a3599a90df6d3b991e0",
      "transactionIndex": "0x5",
      "blockHash": "0x673278250070e421099c87832f3639274774fe48aef3d9df9b489f63c67668db",
      "blockNumber": "0x71271f3",
      "gasUsed": "0xed9b",
      "effectiveGasPrice": "0x3a2dbfd",
      "from": "0x9775137314fe595c943712b0b336327dfa80ae8a",
      "to": "0xd703aae79538628d27099b8c4f621be4ccd142d5",
      "contractAddress": null,
      "l1Fee": "0x805ea93a6",
      "l1GasPrice": "0x28bcf798f",
      "l1GasUsed": "0x8fc"
    }
  ],
  "libraries": [],
  "pending": [],
  "returns": {},
  "timestamp": 1712897446,
  "chain": 10,
  "commit": "feedc00"
}