{
  "transactions": [
    {
      "hash": "0xd574a44565cae438a1f728240b53ae24fc07d40c99e001b90eaae331091c1aa0",
      "transactionType": "CALL",
      "contractName": null,
      "contractAddress": "0xd703aae79538628d27099b8c4f621be4ccd142d5",
      "function": "approveFactory(address,bool)",
      "arguments": [
        "0x6723b44Abeec4E71eBE3232BD5B455805baDD22f",
        "true"
      ],
      "transaction": {
        "from": "0x9775137314fe595c943712b0b336327dfa80ae8a",
        "to": "0xd703aae79538628d27099b8c4f621be4ccd142d5",
        "gas": "0x108d1",
        "value": "0x0",
        "input": "0x6e7dbabb0000000000000000000000006723b44abeec4e71ebe3232bd5b455805badd22f0000000000000000000000000000000000000000000000000000000000000001",
        "nonce": "0x2e",
        "chainId": "0x89",
        "accessList": null,
        "type": null
      },
      "additionalContracts": [],
      "isFixedGasLimit": false
    },
    {
      "hash": "0xfaccae4bdf12af1eb46771da479d742d572b10a16c59d8cab3371e75a35d9184",
      "transactionType": "CALL",
      "contractName": null,
      "contractAddress": "0xd703aae79538628d27099b8c4f621be4ccd142d5",
      "function": "stake(address,uint32)",
      "arguments": [
        "0x0000000071727De22E5E9d8BAf0edAc6f37da032",
        "86400"
      ],
      "transaction": {
        "from": "0x9775137314fe595c943712b0b336327dfa80ae8a",
        "to": "0xd703aae79538628d27099b8c4f621be4ccd142d5",
        "gas": "0x15b7f",
        "value": "0x16345785d8a0000",
        "input": "0xc7e55f3e0000000000000000000000000000000071727de22e5e9d8baf0edac6f37da0320000000000000000000000000000000000000000000000000000000000015180",
        "nonce": "0x2f",
        "chainId": "0x89",
        "accessList": null,
        "type": null
      },
      "additionalContracts": [],
      "isFixedGasLimit": false
    }
  ],
  "receipts": [
    {
      "status": "0x1",
      "cumulativeGasUsed": "0x1044556",
      "logs": [
        {
          "address": "0x0000000000000000000000000000000000001010",
          "topics": [
            "0x4dfe1bbbcf077ddc3e01291eea2d5c70c2b422b415d95645b9adcfd678cb1d63",
            "0x0000000000000000000000000000000000000000000000000000000000001010",
            "0x0000000000000000000000009775137314fe595c943712b0b336327dfa80ae8a",
            "0x0000000000000000000000001efecb61a2f80aa34d3b9218b564a64d05946290"
          ],
          "data": "0x00000000000000000000000000000000000000000000000000055fbdad206a140000000000000000000000000000000000000000000000173e59c031424266b500000000000000000000000000000000000000000000072ea660d016f7a28d270000000000000000000000000000000000000000000000173e5460739521fca100000000000000000000000000000000000000000000072ea6662fd4a4c2f73b",
          "blockHash": "0x46265559a3c1c33876463a3d166755b6566dfdcbb0c824d888a8a5462621b2d4",
          "blockNumber": "0x35257b9",
          "transactionHash": "0xd574a44565cae438a1f728240b53ae24fc07d40c99e001b90eaae331091c1aa0",
          "transactionIndex": "0x48",
          "logIndex": "0x4c2",
          "removed": false
        }
      ],
      "logsBloom": "0x00000000000000000000000000000000000000000000000000000000000000000000000000000000000000000000000000008000000000000000000000000000200000000000000000000000000000800000000000000000000100000000000200000000000000000000000000000000000000000000000080000000000000000000000000000000000000000000000000000000000000000000080000000000201000000000000000000000000000000000000000000000000000000000004000000100000000000001000000000000000000000000000000100000000000002000000000000000000000000000000000000000000000000000000000100000",
      "type": "0x0",
      "transactionHash": "0xd574a44565cae438a1f728240b53ae24fc07d40c99e001b90eaae331091c1aa0",
      "transactionIndex": "0x48",
      "blockHash": "0x46265559a3c1c33876463a3d166755b6566dfdcbb0c824d888a8a5462621b2d4",
      "blockNumber": "0x35257b9",
      "gasUsed": "0xb513",
      "effectiveGasPrice": "0x3310148ffc",
      "from": "0x9775137314fe595c943712b0b336327dfa80ae8a",
      "to": "0xd703aae79538628d27099b8c4f621be4ccd142d5",
      "contractAddress": null
    },
    {
      "status": "0x1",
      "cumulativeGasUsed": "0x89fb08",
      "logs": [
        {
          "address": "0x0000000000000000000000000000000000001010",
          "topics": [
            "0xe6497e3ee548a3372136af2fcb0696db31fc6cf20260707645068bd3fe97f3c4",
            "0x0000000000000000000000000000000000000000000000000000000000001010",
            "0x0000000000000000000000009775137314fe595c943712b0b336327dfa80ae8a",
            "0x000000000000000000000000d703aae79538628d27099b8c4f621be4ccd142d5"
          ],
          "data": "0x000000000000000000000000000000000000000000000000016345785d8a00000000000000000000000000000000000000000000000000173df051e7ad9088fd00000000000000000000000000000000000000000000000000000000000000000000000000000000000000000000000000000000000000173c8d0c6f500688fd000000000000000000000000000000000000000000000000016345785d8a0000",
          "blockHash": "0x8154c72f924636cc13a2a373550843605d0e04af04f173974489c6f8ae0648a0",
          "blockNumber": "0x35257bc",
          "transactionHash": "0xfaccae4bdf12af1eb46771da479d742d572b10a16c59d8cab3371e75a35d9184",
          "transactionIndex": "0x3f",
          "logIndex": "0xe0",
          "removed": false
        },
        {
          "address": "0x0000000000000000000000000000000000001010",
          "topics": [
            "0xe6497e3ee548a3372136af2fcb0696db31fc6cf20260707645068bd3fe97f3c4",
            "0x0000000000000000000000000000000000000000000000000000000000001010",
            "0x000000000000000000000000d703aae79538628d27099b8c4f621be4ccd142d5",
            "0x0000000000000000000000000000000071727de22e5e9d8baf0edac6f37da032"
          ],
          "data": "0x000000000000000000000000000000000000000000000000016345785d8a0000000000000000000000000000000000000000000000000000016345785d8a00000000000000000000000000000000000000000000000000033da085acde16f6ce00000000000000000000000000000000000000000000000000000000000000000000000000000000000000000000000000000000000000033f03cb253ba0f6ce",
          "blockHash": "0x8154c72f924636cc13a2a373550843605d0e04af04f173974489c6f8ae0648a0",
          "blockNumber": "0x35257bc",
          "transactionHash": "0xfaccae4bdf12af1eb46771da479d742d572b10a16c59d8cab3371e75a35d9184",
          "transactionIndex": "0x3f",
          "logIndex": "0xe1",
          "removed": false
        },
        {
          "address": "0x0000000071727de22e5e9d8baf0edac6f37da032",
          "topics": [
            "0xa5ae833d0bb1dcd632d98a8b70973e8516812898e19bf27b70071ebc8dc52c01",
            "0x000000000000000000000000d703aae79538628d27099b8c4f621be4ccd142d5"
          ],
          "data": "0x000000000000000000000000000000000000000000000000016345785d8a00000000000000000000000000000000000000000000000000000000000000015180",
          "blockHash": "0x8154c72f924636cc13a2a373550843605d0e04af04f173974489c6f8ae0648a0",
          "blockNumber": "0x35257bc",
          "transactionHash": "0xfaccae4bdf12af1eb46771da479d742d572b10a16c59d8cab3371e75a35d9184",
          "transactionIndex": "0x3f",
          "logIndex": "0xe2",
          "removed": false
        },
        {
          "address": "0x0000000000000000000000000000000000001010",
          "topics": [
            "0x4dfe1bbbcf077ddc3e01291eea2d5c70c2b422b415d95645b9adcfd678cb1d63",
            "0x0000000000000000000000000000000000000000000000000000000000001010",
            "0x0000000000000000000000009775137314fe595c943712b0b336327dfa80ae8a",
            "0x0000000000000000000000001efecb61a2f80aa34d3b9218b564a64d05946290"
          ],
          "data": "0x0000000000000000000000000000000000000000000000000006f65114f9c9550000000000000000000000000000000000000000000000173e35a20886ee8b0100000000000000000000000000000000000000000000072ede6a10c0b3ba0b9a0000000000000000000000000000000000000000000000173e2eabb771f4c1ac00000000000000000000000000000000000000000000072ede710711c8b3d4ef",
          "blockHash": "0x8154c72f924636cc13a2a373550843605d0e04af04f173974489c6f8ae0648a0",
          "blockNumber": "0x35257bc",
          "transactionHash": "0xfaccae4bdf12af1eb46771da479d742d572b10a16c59d8cab3371e75a35d9184",
          "transactionIndex": "0x3f",
          "logIndex": "0xe3",
          "removed": false
        }
      ],
      "logsBloom": "0x00000000000000000000000000000000000000000000000000000000000000000004000000000000000000100000000000008000000000000000000000000000210000000000000000000000000000800040000000000000000100000000000200000000000800000000000000200000000000000000000080000000000000000000000000000000000000000000000000000000000000000000080000000000201000000000000000000000000000000000000000000000000000000000004000000100000000400001000000000000000040000000800000108000000000002100000000000000000000000000000000800a00000000000100000000100000",
      "type": "0x0",
      "transactionHash": "0xfaccae4bdf12af1eb46771da479d742d572b10a16c59d8cab3371e75a35d9184",
      "transactionIndex": "0x3f",
      "blockHash": "0x8154c72f924636cc13a2a373550843605d0e04af04f173974489c6f8ae0648a0",
      "blockNumber": "0x35257bc",
      "gasUsed": "0xed9b",
      "effectiveGasPrice": "0x3310148ffc",
      "from": "0x9775137314fe595c943712b0b336327dfa80ae8a",
      "to": "0xd703aae79538628d27099b8c4f621be4ccd142d5",
      "contractAddress": null
    }
  ],
  "libraries": [],
  "pending": [],
  "returns": {},
  "timestamp": 1712900481,
  "chain": 137,
  "commit": "feedc00"
}