{
  "transactions": [
    {
      "hash": "0xae59ef91c4ccd79c73dacd816aa0ec92b19a24e5c2a67b9ebca11e72bc670384",
      "transactionType": "CALL",
      "contractName": null,
      "contractAddress": "0xd703aae79538628d27099b8c4f621be4ccd142d5",
      "function": "approveFactory(address,bool)",
      "arguments": [
        "0x6723b44Abeec4E71eBE3232BD5B455805baDD22f",
        "true"
      ],
      "transaction": {
        "from": "0x9775137314fe595c943712b0b336327dfa80ae8a",
        "to": "0xd703aae79538628d27099b8c4f621be4ccd142d5",
        "gas": "0x108d1",
        "value": "0x0",
        "input": "0x6e7dbabb0000000000000000000000006723b44abeec4e71ebe3232bd5b455805badd22f0000000000000000000000000000000000000000000000000000000000000001",
        "nonce": "0xf",
        "chainId": "0x14a34",
        "accessList": null,
        "type": null
      },
      "additionalContracts": [],
      "isFixedGasLimit": false
    },
    {
      "hash": "0x75926d9afc1e817263714392021ab1998116044d5a09a56619947066c09dac22",
      "transactionType": "CALL",
      "contractName": null,
      "contractAddress": "0xd703aae79538628d27099b8c4f621be4ccd142d5",
      "function": "stake(address,uint32)",
      "arguments": [
        "0x0000000071727De22E5E9d8BAf0edAc6f37da032",
        "86400"
      ],
      "transaction": {
        "from": "0x9775137314fe595c943712b0b336327dfa80ae8a",
        "to": "0xd703aae79538628d27099b8c4f621be4ccd142d5",
        "gas": "0x15b7f",
        "value": "0x16345785d8a0000",
        "input": "0xc7e55f3e0000000000000000000000000000000071727de22e5e9d8baf0edac6f37da0320000000000000000000000000000000000000000000000000000000000015180",
        "nonce": "0x10",
        "chainId": "0x14a34",
        "accessList": null,
        "type": null
      },
      "additionalContracts": [],
      "isFixedGasLimit": false
    }
  ],
  "receipts": [
    {
      "status": "0x1",
      "cumulativeGasUsed": "0x6221a",
      "logs": [],
      "logsBloom": "0x00000000000000000000000000000000000000000000000000000000000000000000000000000000000000000000000000000000000000000000000000000000000000000000000000000000000000000000000000000000000000000000000000000000000000000000000000000000000000000000000000000000000000000000000000000000000000000000000000000000000000000000000000000000000000000000000000000000000000000000000000000000000000000000000000000000000000000000000000000000000000000000000000000000000000000000000000000000000000000000000000000000000000000000000000000000",
      "type": "0x0",
      "transactionHash": "0xae59ef91c4ccd79c73dacd816aa0ec92b19a24e5c2a67b9ebca11e72bc670384",
      "transactionIndex": "0x6",
      "blockHash": "0xe6a62442dc36b99f1ef0464318f05fa503cc9474453b0bbf2a6e6da0188e1708",
      "blockNumber": "0x8258fe",
      "gasUsed": "0xb513",
      "effectiveGasPrice": "0xf4359",
      "from": "0x9775137314fe595c943712b0b336327dfa80ae8a",
      "to": "0xd703aae79538628d27099b8c4f621be4ccd142d5",
      "contractAddress": null,
      "l1Fee": "0x93a386cb4b44",
      "l1GasPrice": "0x7fbaf22",
      "l1GasUsed": "0x8cc"
    },
    {
      "status": "0x1",
      "cumulativeGasUsed": "0x70fb5",
      "logs": [
        {
          "address": "0x0000000071727de22e5e9d8baf0edac6f37da032",
          "topics": [
            "0xa5ae833d0bb1dcd632d98a8b70973e8516812898e19bf27b70071ebc8dc52c01",
            "0x000000000000000000000000d703aae79538628d27099b8c4f621be4ccd142d5"
          ],
          "data": "0x000000000000000000000000000000000000000000000000016345785d8a00000000000000000000000000000000000000000000000000000000000000015180",
          "blockHash": "0xe6a62442dc36b99f1ef0464318f05fa503cc9474453b0bbf2a6e6da0188e1708",
          "blockNumber": "0x8258fe",
          "transactionHash": "0x75926d9afc1e817263714392021ab1998116044d5a09a56619947066c09dac22",
          "transactionIndex": "0x7",
          "logIndex": "0x0",
          "removed": false
        }
      ],
      "logsBloom": "0x00000000000000000000000000000000000000000000000000000000000000000004000000000000000000000000000000000000000000000000000000000000000000000000000000000000000000000040000000000000000000000000000000000000000800000000000000200000000000000000000000000000000000000000000000000000000000000000000000000000000000000000000000000000000000000000000000000000000000000000000000000000000000000000000000000000000000400000000000000000000040000000000000000000000000000100000000000000000000000000000000000a00000000000000000000000000",
      "type": "0x0",
      "transactionHash": "0x75926d9afc1e817263714392021ab1998116044d5a09a56619947066c09dac22",
      "transactionIndex": "0x7",
      "blockHash": "0xe6a62442dc36b99f1ef0464318f05fa503cc9474453b0bbf2a6e6da0188e1708",
      "blockNumber": "0x8258fe",
      "gasUsed": "0xed9b",
      "effectiveGasPrice": "0xf4359",
      "from": "0x9775137314fe595c943712b0b336327dfa80ae8a",
      "to": "0xd703aae79538628d27099b8c4f621be4ccd142d5",
      "contractAddress": null,
      "l1Fee": "0x98e22c8c7daf",
      "l1GasPrice": "0x7fbaf22",
      "l1GasUsed": "0x91c"
    }
  ],
  "libraries": [],
  "pending": [],
  "returns": {},
  "timestamp": 1712853220,
  "chain": 84532,
  "commit": "de0f2f3"
}