{
  "transactions": [
    {
      "hash": "0x0851c13b961617f7b1d221cc342e5077419c03b0094ff123965ee2e2bd529506",
      "transactionType": "CREATE2",
      "contractName": "KernelFactory",
      "contractAddress": "0x5de4839a76cf55d0c90e2061ef4386d962E15ae3",
      "function": null,
      "arguments": null,
      "transaction": {
        "type": "0x00",
        "from": "0x9775137314fe595c943712b0b336327dfa80ae8a",
        "to": "0x4e59b44847b379578588920ca78fbf26c0b4956c",
        "gas": "0xf2137",
        "value": "0x0",
        "data": "0x00000000000000000000000000000000000000000000000000000000000000006080346100b257601f610b2d38819003918201601f19168301916001600160401b038311848410176100b75780849260409485528339810103126100b25780516001600160a01b0391828216918290036100b257602001519182168092036100b25780638b78c6d8195560007f8be0079c531659141344cd1fd0a4f28419497f9722a3daafe3b4186f6b6457e08180a3600080546001600160a01b031916919091179055604051610a5f90816100ce8239f35b600080fd5b634e487b7160e01b600052604160045260246000fdfe6040608081526004908136101561001557600080fd5b600091823560e01c9081630396cb60146107d45781632569296214610789578163296601cd1461059d5781634d6cb7001461052b5781635414dff0146104fa57816354d1f13d146104b4578163584465f2146104745781636544c82814610436578163715018a6146103f05781638da5cb5b146103c3578163b0d691fe1461039b578163bb30a9741461034557838263bb9fe6bf146102ec578263c23a5cea1461026157508163d7533f0214610243578163db4c545e14610219578163f04e283e14610199578163f2fde38b1461012c575063fee81cf4146100f657600080fd5b3461012857602036600319011261012857602091610112610845565b9063389a75e1600c525281600c20549051908152f35b5080fd5b8390602036600319011261012857610142610845565b9061014b61088e565b8160601b1561018e575060018060a01b0316638b78c6d8198181547f8be0079c531659141344cd1fd0a4f28419497f9722a3daafe3b4186f6b6457e08580a35580f35b637448fbae8352601cfd5b83906020366003190112610128576101af610845565b906101b861088e565b63389a75e1600c528183526020600c20908154421161020e575082905560018060a01b0316638b78c6d8198181547f8be0079c531659141344cd1fd0a4f28419497f9722a3daafe3b4186f6b6457e08580a35580f35b636f5e88188452601cfd5b5050346101285781600319360112610128576020906089601361023a6108d8565b01209051908152f35b505034610128578160031936011261012857602090516202a3008152f35b809184346102e85760203660031901126102e85781356001600160a01b0381811693918490036102e45761029361088e565b84541692833b156102e45760248592838551968794859363611d2e7560e11b85528401525af19081156102db57506102c85750f35b6102d190610a13565b6102d85780f35b80fd5b513d84823e3d90fd5b8480fd5b5050fd5b809184346102e857826003193601126102e85761030761088e565b82546001600160a01b031691823b1561034057815163bb9fe6bf60e01b81529284918491829084905af19081156102db57506102c85750f35b505050fd5b50503461012857806003193601126101285761035f610845565b90602435918215158093036103975761037661088e565b60018060a01b03168352600160205282209060ff8019835416911617905580f35b8380fd5b505034610128578160031936011261012857905490516001600160a01b039091168152602090f35b505034610128578160031936011261012857638b78c6d8195490516001600160a01b039091168152602090f35b83806003193601126102d85761040461088e565b80638b78c6d8198181547f8be0079c531659141344cd1fd0a4f28419497f9722a3daafe3b4186f6b6457e08280a35580f35b5050346101285760203660031901126101285760209160ff9082906001600160a01b03610461610845565b1681526001855220541690519015158152f35b83903461012857602036600319011261012857356001600160a01b03811690819003610128576104a261088e565b81546001600160a01b03191617815580f35b83806003193601126102d85763389a75e1600c52338152806020600c2055337ffa7b8eab7da67f412cc9575ed43464468f9bfbae89d1675917346ca6d8fe3c928280a280f35b8284346102d85760203660031901126102d8575061051a602092356108ab565b90516001600160a01b039091168152f35b8284346102d857816003193601126102d85782359067ffffffffffffffff82116102d857506bffffffffffffffffffffffff61056f60209461051a93369101610860565b6105948580518381948a830196873781016024358a8201520388810184520182610a3d565b519020166108ab565b828460603660031901126102d8576105b3610845565b9160243567ffffffffffffffff8111610785576105d39036908601610860565b9360018060a01b039384821681526020966001885260ff858320541615610730576bffffffffffffffffffffffff8551898101908987833761062988828d8d82019060443590820152038d810184520182610a3d565b5190201696331560011715610724576106406108d8565b90601382019860898a2060ff86536035523060601b600152806015526055852099856035528a3b15610678575b8b8b8b8b5191168152f35b856089929394959697989b50f597881561071857918185939284938884527f360894a13ba1a3210667c828492db98dca3e2076cc3735a920a3ca505d382bbc8d85015289840137870190348a5af1156106fe57507f09e48df7857bd0c1e0d31bb8a85d42cf1874817895f171c917f6ee2cea73ec20818692a3848080808080808061066d565b3d1561070d57503d81803e3d90fd5b63301164258252601cfd5b8363301164258652601cfd5b50632f6348368252601cfd5b845162461bcd60e51b8152908101889052602960248201527f4b65726e656c466163746f72793a20696d706c656d656e746174696f6e206e6f6044820152681d08185b1b1bddd95960ba1b6064820152608490fd5b8280fd5b83806003193601126102d85763389a75e1600c523381526202a30042016020600c2055337fdbf36a107da19e49527a7176a1babf963b4b0ff8cde35ee35d6cd8f1f9ac7e1d8280a280f35b91905060203660031901126107855782823563ffffffff8116809103610128576107fc61088e565b81546001600160a01b031693843b156107855760249084519586938492621cb65b60e51b845283015234905af19081156102db5750610839575080f35b61084290610a13565b80f35b600435906001600160a01b038216820361085b57565b600080fd5b9181601f8401121561085b5782359167ffffffffffffffff831161085b576020838186019501011161085b57565b638b78c6d81954330361089d57565b6382b429006000526004601cfd5b608960136108b76108d8565b012060ff6000536035523060601b6001526015526055600020906000603552565b604051903060701c1561097c57666052573d6000fd607b8301527f3d356020355560408036111560525736038060403d373d3d355af43d6000803e60748301527f3735a920a3ca505d382bbc545af43d6000803e6052573d6000fd5b3d6000f35b60548301527f14605757363d3d37363d7f360894a13ba1a3210667c828492db98dca3e2076cc60348301523060148301526c607f3d8160093d39f33d3d33738252565b66604c573d6000fd60758301527f3d3560203555604080361115604c5736038060403d373d3d355af43d6000803e606e8301527f3735a920a3ca505d382bbc545af43d6000803e604c573d6000fd5b3d6000f35b604e8301527f14605157363d3d37363d7f360894a13ba1a3210667c828492db98dca3e2076cc602e83015230600e8301526c60793d8160093d39f33d3d336d8252565b67ffffffffffffffff8111610a2757604052565b634e487b7160e01b600052604160045260246000fd5b90601f8019910116810190811067ffffffffffffffff821117610a2757604052560000000000000000000000009775137314fe595c943712b0b336327dfa80ae8a0000000000000000000000005ff137d4b0fdcd49dca30c7cf57e578a026d2789",
        "nonce": "0xea"
      },
      "additionalContracts": [],
      "isFixedGasLimit": false
    },
    {
      "hash": "0xddaeff7b732e00a1922657fd8c9486f1aae36924bae965399b8d405179009da5",
      "transactionType": "CALL",
      "contractName": "KernelFactory",
      "contractAddress": "0x5de4839a76cf55d0c90e2061ef4386d962E15ae3",
      "function": "setImplementation(address,bool)",
      "arguments": [
        "0xf048AD83CB2dfd6037A43902a2A5Be04e53cd2Eb",
        "true"
      ],
      "transaction": {
        "type": "0x00",
        "from": "0x9775137314fe595c943712b0b336327dfa80ae8a",
        "to": "0x5de4839a76cf55d0c90e2061ef4386d962e15ae3",
        "gas": "0x10945",
        "value": "0x0",
        "data": "0xbb30a974000000000000000000000000f048ad83cb2dfd6037a43902a2a5be04e53cd2eb0000000000000000000000000000000000000000000000000000000000000001",
        "nonce": "0xeb"
      },
      "additionalContracts": [],
      "isFixedGasLimit": false
    },
    {
      "hash": "0xcc30f64ef12ecb53b53291feaef7d569de3ecb267f1f0cc5963bf78d8f16a843",
      "transactionType": "CALL",
      "contractName": "KernelFactory",
      "contractAddress": "0x5de4839a76cf55d0c90e2061ef4386d962E15ae3",
      "function": "addStake(uint32)",
      "arguments": [
        "1"
      ],
      "transaction": {
        "type": "0x00",
        "from": "0x9775137314fe595c943712b0b336327dfa80ae8a",
        "to": "0x5de4839a76cf55d0c90e2061ef4386d962e15ae3",
        "gas": "0x1da73",
        "value": "0x1",
        "data": "0x0396cb600000000000000000000000000000000000000000000000000000000000000001",
        "nonce": "0xec"
      },
      "additionalContracts": [],
      "isFixedGasLimit": false
    }
  ],
  "receipts": [
    {
      "transactionHash": "0x0851c13b961617f7b1d221cc342e5077419c03b0094ff123965ee2e2bd529506",
      "transactionIndex": "0x3",
      "blockHash": "0xc73223146cb1ad21c39bcb56f4b4379100772771e65cac4a291c60c3239df20d",
      "blockNumber": "0x253326b",
      "from": "0x9775137314fE595c943712B0b336327dfa80aE8A",
      "to": "0x4e59b44847b379578588920cA78FbF26c0B4956C",
      "cumulativeGasUsed": "0xdc8f9",
      "gasUsed": "0xa585b",
      "contractAddress": null,
      "logs": [
        {
          "address": "0x5de4839a76cf55d0c90e2061ef4386d962E15ae3",
          "topics": [
            "0x8be0079c531659141344cd1fd0a4f28419497f9722a3daafe3b4186f6b6457e0",
            "0x0000000000000000000000000000000000000000000000000000000000000000",
            "0x0000000000000000000000009775137314fe595c943712b0b336327dfa80ae8a"
          ],
          "data": "0x",
          "blockHash": "0xc73223146cb1ad21c39bcb56f4b4379100772771e65cac4a291c60c3239df20d",
          "blockNumber": "0x253326b",
          "transactionHash": "0x0851c13b961617f7b1d221cc342e5077419c03b0094ff123965ee2e2bd529506",
          "transactionIndex": "0x3",
          "logIndex": "0xc",
          "removed": false
        },
        {
          "address": "0x0000000000000000000000000000000000001010",
          "topics": [
            "0x4dfe1bbbcf077ddc3e01291eea2d5c70c2b422b415d95645b9adcfd678cb1d63",
            "0x0000000000000000000000000000000000000000000000000000000000001010",
            "0x0000000000000000000000009775137314fe595c943712b0b336327dfa80ae8a",
            "0x0000000000000000000000005082f249cdb2f2c1ee035e4f423c46ea2dab3ab1"
          ],
          "data": "0x00000000000000000000000000000000000000000000000000039ced6e30b50000000000000000000000000000000000000000000000000014405c003a883ac2000000000000000000000000000000000000000000000018dd272bffa3e33ffe000000000000000000000000000000000000000000000000143cbf12cc5785c2000000000000000000000000000000000000000000000018dd2ac8ed1213f4fe",
          "blockHash": "0xc73223146cb1ad21c39bcb56f4b4379100772771e65cac4a291c60c3239df20d",
          "blockNumber": "0x253326b",
          "transactionHash": "0x0851c13b961617f7b1d221cc342e5077419c03b0094ff123965ee2e2bd529506",
          "transactionIndex": "0x3",
          "logIndex": "0xd",
          "removed": false
        }
      ],
      "status": "0x1",
      "logsBloom": "0x00000000000000000000000000000000000000000000000000800000020000000000000002000000000000000000000000008000000000000000000000000000000000000000000000000000000000800001000000000000000100000000000200000000020000000000000000000800000000000000000080000000000000400000000000000000000000000080000000000000000000000000080000000000201000100000000000000000000000000000000000000000000000000000004000000000000000000001400000000000000000000000000000100000000020000000000000000080000000000000000000000000000000000000000000100000",
      "type": "0x0",
      "effectiveGasPrice": "0x59682f0f"
    },
    {
      "transactionHash": "0xddaeff7b732e00a1922657fd8c9486f1aae36924bae965399b8d405179009da5",
      "transactionIndex": "0x4",
      "blockHash": "0xc73223146cb1ad21c39bcb56f4b4379100772771e65cac4a291c60c3239df20d",
      "blockNumber": "0x253326b",
      "from": "0x9775137314fE595c943712B0b336327dfa80aE8A",
      "to": "0x5de4839a76cf55d0c90e2061ef4386d962E15ae3",
      "cumulativeGasUsed": "0xe7e5b",
      "gasUsed": "0xb562",
      "contractAddress": null,
      "logs": [
        {
          "address": "0x0000000000000000000000000000000000001010",
          "topics": [
            "0x4dfe1bbbcf077ddc3e01291eea2d5c70c2b422b415d95645b9adcfd678cb1d63",
            "0x0000000000000000000000000000000000000000000000000000000000001010",
            "0x0000000000000000000000009775137314fe595c943712b0b336327dfa80ae8a",
            "0x0000000000000000000000005082f249cdb2f2c1ee035e4f423c46ea2dab3ab1"
          ],
          "data": "0x00000000000000000000000000000000000000000000000000003f58e31cfe00000000000000000000000000000000000000000000000000143cbf12cbbc586d000000000000000000000000000000000000000000000018dd2ac8ed1213f4fe000000000000000000000000000000000000000000000000143c7fb9e89f5a6d000000000000000000000000000000000000000000000018dd2b0845f530f2fe",
          "blockHash": "0xc73223146cb1ad21c39bcb56f4b4379100772771e65cac4a291c60c3239df20d",
          "blockNumber": "0x253326b",
          "transactionHash": "0xddaeff7b732e00a1922657fd8c9486f1aae36924bae965399b8d405179009da5",
          "transactionIndex": "0x4",
          "logIndex": "0xe",
          "removed": false
        }
      ],
      "status": "0x1",
      "logsBloom": "0x00000000000000000000000000000000000000000000000000000000020000000000000002000000000000000000000000008000000000000000000000000000000000000000000000000000000000800000000000000000000100000000000200000000000000000000000000000000000000000000000080000000000000000000000000000000000000000000000000000000000000000000080000000000201000000000000000000000000000000000000000000000000000000000004000000000000000000001000000000000000000000000000000100000000000000000000000000080000000000000000000000000000000000000000000100000",
      "type": "0x0",
      "effectiveGasPrice": "0x59682f0f"
    },
    {
      "transactionHash": "0xcc30f64ef12ecb53b53291feaef7d569de3ecb267f1f0cc5963bf78d8f16a843",
      "transactionIndex": "0x5",
      "blockHash": "0xc73223146cb1ad21c39bcb56f4b4379100772771e65cac4a291c60c3239df20d",
      "blockNumber": "0x253326b",
      "from": "0x9775137314fE595c943712B0b336327dfa80aE8A",
      "to": "0x5de4839a76cf55d0c90e2061ef4386d962E15ae3",
      "cumulativeGasUsed": "0xfc2c4",
      "gasUsed": "0x14469",
      "contractAddress": null,
      "logs": [
        {
          "address": "0x0000000000000000000000000000000000001010",
          "topics": [
            "0xe6497e3ee548a3372136af2fcb0696db31fc6cf20260707645068bd3fe97f3c4",
            "0x0000000000000000000000000000000000000000000000000000000000001010",
            "0x0000000000000000000000009775137314fe595c943712b0b336327dfa80ae8a",
            "0x0000000000000000000000005de4839a76cf55d0c90e2061ef4386d962e15ae3"
          ],
          "data": "0x0000000000000000000000000000000000000000000000000000000000000001000000000000000000000000000000000000000000000000143bda06d7a5cff20000000000000000000000000000000000000000000000000000000000000000000000000000000000000000000000000000000000000000143bda06d7a5cff10000000000000000000000000000000000000000000000000000000000000001",
          "blockHash": "0xc73223146cb1ad21c39bcb56f4b4379100772771e65cac4a291c60c3239df20d",
          "blockNumber": "0x253326b",
          "transactionHash": "0xcc30f64ef12ecb53b53291feaef7d569de3ecb267f1f0cc5963bf78d8f16a843",
          "transactionIndex": "0x5",
          "logIndex": "0xf",
          "removed": false
        },
        {
          "address": "0x0000000000000000000000000000000000001010",
          "topics": [
            "0xe6497e3ee548a3372136af2fcb0696db31fc6cf20260707645068bd3fe97f3c4",
            "0x0000000000000000000000000000000000000000000000000000000000001010",
            "0x0000000000000000000000005de4839a76cf55d0c90e2061ef4386d962e15ae3",
            "0x0000000000000000000000005ff137d4b0fdcd49dca30c7cf57e578a026d2789"
          ],
          "data": "0x00000000000000000000000000000000000000000000000000000000000000010000000000000000000000000000000000000000000000000000000000000001000000000000000000000000000000000000000000000091e737cda26879304f0000000000000000000000000000000000000000000000000000000000000000000000000000000000000000000000000000000000000091e737cda268793050",
          "blockHash": "0xc73223146cb1ad21c39bcb56f4b4379100772771e65cac4a291c60c3239df20d",
          "blockNumber": "0x253326b",
          "transactionHash": "0xcc30f64ef12ecb53b53291feaef7d569de3ecb267f1f0cc5963bf78d8f16a843",
          "transactionIndex": "0x5",
          "logIndex": "0x10",
          "removed": false
        },
        {
          "address": "0x5FF137D4b0FDCD49DcA30c7CF57E578a026d2789",
          "topics": [
            "0xa5ae833d0bb1dcd632d98a8b70973e8516812898e19bf27b70071ebc8dc52c01",
            "0x0000000000000000000000005de4839a76cf55d0c90e2061ef4386d962e15ae3"
          ],
          "data": "0x00000000000000000000000000000000000000000000000000000000000000010000000000000000000000000000000000000000000000000000000000000001",
          "blockHash": "0xc73223146cb1ad21c39bcb56f4b4379100772771e65cac4a291c60c3239df20d",
          "blockNumber": "0x253326b",
          "transactionHash": "0xcc30f64ef12ecb53b53291feaef7d569de3ecb267f1f0cc5963bf78d8f16a843",
          "transactionIndex": "0x5",
          "logIndex": "0x11",
          "removed": false
        },
        {
          "address": "0x0000000000000000000000000000000000001010",
          "topics": [
            "0x4dfe1bbbcf077ddc3e01291eea2d5c70c2b422b415d95645b9adcfd678cb1d63",
            "0x0000000000000000000000000000000000000000000000000000000000001010",
            "0x0000000000000000000000009775137314fe595c943712b0b336327dfa80ae8a",
            "0x0000000000000000000000005082f249cdb2f2c1ee035e4f423c46ea2dab3ab1"
          ],
          "data": "0x0000000000000000000000000000000000000000000000000000714c87374700000000000000000000000000000000000000000000000000143c7fb9e894b9af000000000000000000000000000000000000000000000018dd2b0845f530f2fe000000000000000000000000000000000000000000000000143c0e6d615d72af000000000000000000000000000000000000000000000018dd2b79927c6839fe",
          "blockHash": "0xc73223146cb1ad21c39bcb56f4b4379100772771e65cac4a291c60c3239df20d",
          "blockNumber": "0x253326b",
          "transactionHash": "0xcc30f64ef12ecb53b53291feaef7d569de3ecb267f1f0cc5963bf78d8f16a843",
          "transactionIndex": "0x5",
          "logIndex": "0x12",
          "removed": false
        }
      ],
      "status": "0x1",
      "logsBloom": "0x00000000000000000000000000000000000000000000000010000000820000000000000002000000000200100000000000108000000000000000000000000000000000000000000000000000000000800000000000000000000100000000000600000000080000000000000000000000000000000000004080800000000000000000000000000000000000000000000000000000000000000000080000000000201000000000000000000000000000000000000000000000000002000000004000000000000000000001000000000000000040000000800000108000000000000100000000000080000000000000000000000200000000000000000000100000",
      "type": "0x0",
      "effectiveGasPrice": "0x59682f0f"
    }
  ],
  "libraries": [],
  "pending": [],
  "returns": {},
  "timestamp": 1692067762,
  "chain": 80001,
  "multi": false,
  "commit": "1382d0c"
}